{
  "_format": "hh-sol-artifact-1",
  "contractName": "Trade",
  "sourceName": "contracts/Trade.sol",
  "abi": [
    {
      "inputs": [
        {
          "internalType": "address",
          "name": "owner",
          "type": "address"
        },
        {
          "internalType": "address",
          "name": "srcTokenAddress",
          "type": "address"
        },
        {
          "internalType": "uint256",
          "name": "_srcAmount",
          "type": "uint256"
        },
        {
          "internalType": "address",
          "name": "dstTokenAddress",
          "type": "address"
        },
        {
          "internalType": "uint256",
          "name": "_dstAmount",
          "type": "uint256"
        }
      ],
      "stateMutability": "nonpayable",
      "type": "constructor"
    },
    {
      "inputs": [],
      "name": "TransferFailed",
      "type": "error"
    },
    {
      "inputs": [],
      "name": "bla",
      "outputs": [],
      "stateMutability": "nonpayable",
      "type": "function"
    },
    {
      "inputs": [],
      "name": "dstAddress",
      "outputs": [
        {
          "internalType": "address",
          "name": "",
          "type": "address"
        }
      ],
      "stateMutability": "view",
      "type": "function"
    },
    {
      "inputs": [],
      "name": "dstAmount",
      "outputs": [
        {
          "internalType": "uint256",
          "name": "",
          "type": "uint256"
        }
      ],
      "stateMutability": "view",
      "type": "function"
    },
    {
      "inputs": [],
      "name": "dstToken",
      "outputs": [
        {
          "internalType": "contract ERC20",
          "name": "",
          "type": "address"
        }
      ],
      "stateMutability": "view",
      "type": "function"
    },
    {
      "inputs": [],
      "name": "srcAddress",
      "outputs": [
        {
          "internalType": "address",
          "name": "",
          "type": "address"
        }
      ],
      "stateMutability": "view",
      "type": "function"
    },
    {
      "inputs": [],
      "name": "srcAmount",
      "outputs": [
        {
          "internalType": "uint256",
          "name": "",
          "type": "uint256"
        }
      ],
      "stateMutability": "view",
      "type": "function"
    },
    {
      "inputs": [],
      "name": "srcToken",
      "outputs": [
        {
          "internalType": "contract ERC20",
          "name": "",
          "type": "address"
        }
      ],
      "stateMutability": "view",
      "type": "function"
    },
    {
      "inputs": [],
      "name": "take",
      "outputs": [],
      "stateMutability": "payable",
      "type": "function"
    }
  ],
  "bytecode": "0x60806040523480156200001157600080fd5b5060405162000eff38038062000eff833981810160405281019062000037919062000449565b846000806101000a81548173ffffffffffffffffffffffffffffffffffffffff021916908373ffffffffffffffffffffffffffffffffffffffff16021790555083600260006101000a81548173ffffffffffffffffffffffffffffffffffffffff021916908373ffffffffffffffffffffffffffffffffffffffff1602179055508260038190555081600460006101000a81548173ffffffffffffffffffffffffffffffffffffffff021916908373ffffffffffffffffffffffffffffffffffffffff16021790555080600581905550620001ed600260009054906101000a900473ffffffffffffffffffffffffffffffffffffffff1673ffffffffffffffffffffffffffffffffffffffff166370a0823160008054906101000a900473ffffffffffffffffffffffffffffffffffffffff166040518263ffffffff1660e01b8152600401620001889190620004e2565b60206040518083038186803b158015620001a157600080fd5b505afa158015620001b6573d6000803e3d6000fd5b505050506040513d601f19601f82011682018060405250810190620001dc9190620004ff565b620002d860201b620006941760201c565b600354600260009054906101000a900473ffffffffffffffffffffffffffffffffffffffff1673ffffffffffffffffffffffffffffffffffffffff166370a0823160008054906101000a900473ffffffffffffffffffffffffffffffffffffffff166040518263ffffffff1660e01b81526004016200026d9190620004e2565b60206040518083038186803b1580156200028657600080fd5b505afa1580156200029b573d6000803e3d6000fd5b505050506040513d601f19601f82011682018060405250810190620002c19190620004ff565b1015620002cd57600080fd5b50505050506200055f565b6200037881604051602401620002ef919062000542565b6040516020818303038152906040527ff82c50f1000000000000000000000000000000000000000000000000000000007bffffffffffffffffffffffffffffffffffffffffffffffffffffffff19166020820180517bffffffffffffffffffffffffffffffffffffffffffffffffffffffff83818316178352505050506200037b60201b60201c565b50565b60008151905060006a636f6e736f6c652e6c6f679050602083016000808483855afa5050505050565b600080fd5b600073ffffffffffffffffffffffffffffffffffffffff82169050919050565b6000620003d682620003a9565b9050919050565b620003e881620003c9565b8114620003f457600080fd5b50565b6000815190506200040881620003dd565b92915050565b6000819050919050565b62000423816200040e565b81146200042f57600080fd5b50565b600081519050620004438162000418565b92915050565b600080600080600060a08688031215620004685762000467620003a4565b5b60006200047888828901620003f7565b95505060206200048b88828901620003f7565b94505060406200049e8882890162000432565b9350506060620004b188828901620003f7565b9250506080620004c48882890162000432565b9150509295509295909350565b620004dc81620003c9565b82525050565b6000602082019050620004f96000830184620004d1565b92915050565b600060208284031215620005185762000517620003a4565b5b6000620005288482850162000432565b91505092915050565b6200053c816200040e565b82525050565b600060208201905062000559600083018462000531565b92915050565b610990806200056f6000396000f3fe60806040526004361061007b5760003560e01c8063d961562b1161004e578063d961562b1461010b578063e4c255d514610136578063f07494a014610161578063fed0a1f8146101785761007b565b8063159090bd1461008057806316012ecc1461008a5780637cf8ed0d146100b5578063d08648fd146100e0575b600080fd5b6100886101a3565b005b34801561009657600080fd5b5061009f6105f0565b6040516100ac919061076f565b60405180910390f35b3480156100c157600080fd5b506100ca6105f6565b6040516100d79190610809565b60405180910390f35b3480156100ec57600080fd5b506100f561061c565b6040516101029190610809565b60405180910390f35b34801561011757600080fd5b50610120610642565b60405161012d9190610845565b60405180910390f35b34801561014257600080fd5b5061014b610666565b6040516101589190610845565b60405180910390f35b34801561016d57600080fd5b5061017661068c565b005b34801561018457600080fd5b5061018d61068e565b60405161019a919061076f565b60405180910390f35b33600160006101000a81548173ffffffffffffffffffffffffffffffffffffffff021916908373ffffffffffffffffffffffffffffffffffffffff160217905550600354600260009054906101000a900473ffffffffffffffffffffffffffffffffffffffff1673ffffffffffffffffffffffffffffffffffffffff166370a0823160008054906101000a900473ffffffffffffffffffffffffffffffffffffffff166040518263ffffffff1660e01b81526004016102629190610845565b60206040518083038186803b15801561027a57600080fd5b505afa15801561028e573d6000803e3d6000fd5b505050506040513d601f19601f820116820180604052508101906102b29190610891565b10156102bd57600080fd5b600554600460009054906101000a900473ffffffffffffffffffffffffffffffffffffffff1673ffffffffffffffffffffffffffffffffffffffff166370a08231600160009054906101000a900473ffffffffffffffffffffffffffffffffffffffff166040518263ffffffff1660e01b815260040161033d9190610845565b60206040518083038186803b15801561035557600080fd5b505afa158015610369573d6000803e3d6000fd5b505050506040513d601f19601f8201168201806040525081019061038d9190610891565b101561039857600080fd5b600460009054906101000a900473ffffffffffffffffffffffffffffffffffffffff1673ffffffffffffffffffffffffffffffffffffffff166323b872dd600160009054906101000a900473ffffffffffffffffffffffffffffffffffffffff1660008054906101000a900473ffffffffffffffffffffffffffffffffffffffff166005546040518463ffffffff1660e01b815260040161043b939291906108be565b602060405180830381600087803b15801561045557600080fd5b505af1158015610469573d6000803e3d6000fd5b505050506040513d601f19601f8201168201806040525081019061048d919061092d565b6104c3576040517f90b8ec1800000000000000000000000000000000000000000000000000000000815260040160405180910390fd5b600260009054906101000a900473ffffffffffffffffffffffffffffffffffffffff1673ffffffffffffffffffffffffffffffffffffffff166323b872dd60008054906101000a900473ffffffffffffffffffffffffffffffffffffffff16600160009054906101000a900473ffffffffffffffffffffffffffffffffffffffff166003546040518463ffffffff1660e01b8152600401610566939291906108be565b602060405180830381600087803b15801561058057600080fd5b505af1158015610594573d6000803e3d6000fd5b505050506040513d601f19601f820116820180604052508101906105b8919061092d565b6105ee576040517f90b8ec1800000000000000000000000000000000000000000000000000000000815260040160405180910390fd5b565b60035481565b600260009054906101000a900473ffffffffffffffffffffffffffffffffffffffff1681565b600460009054906101000a900473ffffffffffffffffffffffffffffffffffffffff1681565b60008054906101000a900473ffffffffffffffffffffffffffffffffffffffff1681565b600160009054906101000a900473ffffffffffffffffffffffffffffffffffffffff1681565b565b60055481565b61072a816040516024016106a8919061076f565b6040516020818303038152906040527ff82c50f1000000000000000000000000000000000000000000000000000000007bffffffffffffffffffffffffffffffffffffffffffffffffffffffff19166020820180517bffffffffffffffffffffffffffffffffffffffffffffffffffffffff838183161783525050505061072d565b50565b60008151905060006a636f6e736f6c652e6c6f679050602083016000808483855afa5050505050565b6000819050919050565b61076981610756565b82525050565b60006020820190506107846000830184610760565b92915050565b600073ffffffffffffffffffffffffffffffffffffffff82169050919050565b6000819050919050565b60006107cf6107ca6107c58461078a565b6107aa565b61078a565b9050919050565b60006107e1826107b4565b9050919050565b60006107f3826107d6565b9050919050565b610803816107e8565b82525050565b600060208201905061081e60008301846107fa565b92915050565b600061082f8261078a565b9050919050565b61083f81610824565b82525050565b600060208201905061085a6000830184610836565b92915050565b600080fd5b61086e81610756565b811461087957600080fd5b50565b60008151905061088b81610865565b92915050565b6000602082840312156108a7576108a6610860565b5b60006108b58482850161087c565b91505092915050565b60006060820190506108d36000830186610836565b6108e06020830185610836565b6108ed6040830184610760565b949350505050565b60008115159050919050565b61090a816108f5565b811461091557600080fd5b50565b60008151905061092781610901565b92915050565b60006020828403121561094357610942610860565b5b600061095184828501610918565b9150509291505056fea2646970667358221220b43d2217da0fe3ecc9dcd09af839d36864dc2ea13e92ee6d48cbeb934d69c16d64736f6c63430008090033",
  "linkReferences": {},
  "deployedLinkReferences": {}
}